:020000040800F2
:10000000B0100020050100083D050008FB040008B1
:10001000FF040008D7030008AB120008000000002E
:10002000000000000000000000000000DD060008E5
:10003000DB03000800000000C5050008C907000830
:100040001F0100081F0100081F0100081F01000810
:100050001F0100081F0100081F0100081F01000800
:100060001F0100081F0100081F0100081F010008F0
:100070001F0100081F0100081F0100081F010008E0
:100080001F0100081F0100081F0100081F010008D0
:100090001F0100081F0100081F0100081F010008C0
:1000A0001F0100081F0100081F0100081F010008B0
:1000B0001D0B00081F010008350B00081F01000878
:1000C0001F0100081F0100081F0100081F01000890
:1000D0001F0100081F0100081F0100088910000807
:1000E0001F0100081F0100081F010008DFF810D0E1
:1000F00000F050F900480047B9170008AFF300803E
:10010000B01000200648804706480047FEE7FEE79B
:10011000FEE7FEE7FEE7FEE7FEE7FEE7FEE7FEE7B7
:100120007D080008ED0000082DE9FE4F81EA030478
:1001300004F0004421F0004100944FF0000B23F044
:10014000004350EA01045ED052EA03045BD0C3F3DB
:100150000A54C1F30A552C44A4F2F3340194A0FBD1
:100160000254C1F3130141F48011C3F3130343F4A8
:10017000801301FB024400FB034E840A970A44EA01
:10018000815447EA8357A4FB076802958D0A05FB53
:1001900007854FEA932C04FB0C542705029D4FEA78
:1001A000065847EA1637B5EB08056EEB070C870EC5
:1001B000920E47EA811742EA8312A7FB0201B6EBCF
:1001C0000B0164EB00042B0D43EA0C335E1844EB87
:1001D0001C50DA465146E7FB0201C5F313044FEA0F
:1001E0000B3343EA14534FEA0432019C43EA0603FB
:1001F000A4F10C040294009CCDE900B400F07CF85A
:1002000003B0BDE8F08F00200146F9E70EB540F2DB
:10021000334102910021CDE900110A460B4600F05E
:100220006BF803B000BDC1F30A5210B5C1F313015E
:1002300040F2FF3341F480119A4201DA002010BDF0
:1002400040F233439A42A2F2334203DC524200F0BE
:1002500034F810BD904010BD2DE9F05F0546002038
:1002600092469B4688460646814640241BE0284627
:1002700041464746224600F020F853465A46C01AE7
:10028000914110D311461846224600F095F82D1AD8
:1002900067EB01084F4622460120002100F08CF850
:1002A00017EB00094E41201EA4F10104DFDC484693
:1002B00031462A464346BDE8F09F202A04DB203A17
:1002C00021FA02F00021704721FA02F3D040C2F176
:1002D0002002914008431946704710B5141E73F16F
:1002E000000408DA401C41F1000192185B411A43F6
:1002F00001D120F0010010BD2DE9F04D92469B4642
:1003000011B1B1FA81F202E0B0FA80F220329046E7
:1003100000F052F804460F4640EA0A0041EA0B0199
:1003200053465A46084313D0114653EA010019D0E8
:10033000C8F140025046FFF7C0FF05460E46504642
:100340005946424600F038F8084305D0012004E041
:1003500020463946BDE8F08D0020054346EAE076A8
:100360002C4337430A986305E40AA0EB08000022F7
:10037000FD0A44EA47540A3002D500200146E9E765
:10038000010510196941DDE9084500196941BDE819
:10039000F04DA2E7064C074D06E0E06840F001038F
:1003A00094E8070098471034AC42F6D3FFF7A2FE5A
:1003B000A41B0008C41B0008202A04DB203A00FA12
:1003C00002F1002070479140C2F1200320FA03F3AC
:1003D00019439040704700BFFEE770472DE9F04198
:1003E000024600250026002000230024002791F863
:1003F00003C00CF00F0591F803C00CF0100CBCF119
:10040000000F03D091F802C04CEA050591F800C036
:10041000BCF1000F31D0146800202BE04FF0010C2C
:100420000CFA00F3B1F800C00CEA03069E4220D19A
:1004300083004FF00F0C0CFA03F7BC4305FA03FCE2
:100440004CEA040491F803C0BCF1280F06D14FF028
:10045000010C0CFA00FCC2F814C00AE091F803C0C9
:10046000BCF1480F05D14FF0010C0CFA00FCC2F8AA
:1004700010C0401C0828D1D31460B1F800C0BCF1F2
:10048000FF0F34DD546800202EE000F1080C4FF01F
:10049000010808FA0CF3B1F800C00CEA03069E420A
:1004A00021D183004FF00F0C0CFA03F7BC4305FA7F
:1004B00003FC4CEA040491F803C0BCF1280F05D1F9
:1004C00000F1080C08FA0CF8C2F8148091F803C087
:1004D000BCF1480F07D100F1080C4FF0010808FAF1
:1004E0000CF8C2F81080401C0828CED35460BDE838
:1004F000F081416170470161704700BFFEE700BFB6
:10050000FEE7000008B50121082000F06DF810207A
:100510008DF803004FF47040ADF8000003208DF813
:10052000020069460448FFF759FF4FF47041024842
:10053000FFF7DFFF08BD0000000C0140704700001E
:1005400070B5002100230F22C47804B3154C246831
:1005500004F4E064C4F5E064210AC1F10403CA4074
:10056000447804FA03F184781440214309010E4CC5
:100570000678A155047804F01F050124AC400578E5
:100580006D11AD0005F1E025C5F8004109E00478E2
:1005900004F01F050124AC40044D0678761145F89F
:1005A000264070BD0CED00E000E400E080E100E0DA
:1005B00002490143024A1160704700000000FA0539
:1005C0000CED00E07047000029B1064AD2690243F1
:1005D000044BDA6104E0034AD2698243014BDA61D9
:1005E000704700000010024029B1064A9269024398
:1005F000044B9A6104E0034A92698243014B9A6179
:10060000704700000010024030B500210022002495
:1006100000232D4D6D6805F00C0121B1042905D092
:10062000082923D105E0294D056022E0274D05600A
:100630001FE0254D6D6805F47012234D6D6805F4BB
:100640008034022505EB92421CB9214D55430560CB
:100650000BE01D4D6D6805F400351DB11C4D554373
:10066000056002E0194D5543056002E0174D056035
:1006700000BF00BF144D6D6805F0F0010909154D6C
:100680006B5C0568DD4045600F4D6D6805F4E06109
:10069000090A104D6B5C4568DD4085600A4D6D6848
:1006A00005F46051C90A0B4D6B5C4568DD40C560BF
:1006B000054D6D6805F44041890B074D6B5CC568BD
:1006C000B5FBF3F5056130BD0010024000127A0061
:1006D00000093D001000002020000020704710B5E8
:1006E00000F002F810BD00000CB500200190009051
:1006F0003348006840F480303149086000BF30481A
:10070000006800F4003000900198401C01900098AF
:1007100018B90198B0F5A06FF1D12948006800F42C
:10072000003010B10120009001E0002000900098FE
:10073000012843D12348006840F010002149086097
:100740000846006820F0070008600846006840F08E
:10075000020008601A484068194948600846406825
:1007600048600846406840F4806048600846406839
:1007700020F47C1048600846406840F4E810486067
:100780000846006840F08070086000BF0C480068B0
:1007900000F000700028F9D00948406820F00300FC
:1007A000074948600846406840F00200486000BFC2
:1007B0000348406800F00C000828F9D10CBD000087
:1007C000001002400020024070B501F01FF905B290
:1007D00001F026F9404206B22048006801280ED1F7
:1007E00000201E4908601E4908601E48B0F803003A
:1007F0001D4908801B48B0F805001C4908801848AE
:100800000068052805DB0020174908801749088083
:1008100004E013480068401C114908601348B0F90F
:1008200000101148B0F9000001F048F81048A0F895
:100830000350A0F8056000240DE00E480068005D3C
:100840000D49088000BF0C48001F008800F04000E0
:100850000028F8D0641C0B2CEFD370BD00000020E2
:1008600004000020300000200C0000200E000020BA
:100870003B000020080000200448004010B5134849
:10088000006840F0010011490860084640681049BE
:1008900008400E494860084600680E4908400B4968
:1008A00008600846006820F4802008600846406818
:1008B00020F4FE0048604FF41F008860FFF70FFF30
:1008C0004FF000600449086010BD000000100240B5
:1008D0000000FFF8FFFFF6FE08ED00E0F0B50C4663
:1008E000154600220021068C4FF6FE773E40068416
:1008F000028B018C4FF60C7632407E1C06EA031602
:100900002E433243104EB0420ED0104EB0420BD0A8
:10091000B0F1804F08D00E4EB04205D00D4EB0421F
:1009200002D00D4EB04206D14FF6FD76314044F074
:100930000106314305E04FF6F576314044F00106FB
:10094000314302830184F0BD002C0140003401409A
:100950000004004000080040000C0040F0B50C46C8
:100960001546002200210026078C4FF6EF7C07EA8F
:100970000C070784028B018C4FF6FF7707EA0416F9
:1009800040F6FF473A404FF6FF7707EA03373A430E
:100990004FF6FF7707EA05273A43114FB8420ED0CA
:1009A000104FB8420BD0B0F1804F08D00E4FB84274
:1009B00005D00E4FB84202D00D4FB84206D14FF6C7
:1009C000DF77394046F01007394305E04FF65F778F
:1009D000394044F01007394302830184F0BD000020
:1009E000002C014000340140000400400008004099
:1009F000000C0040F0B50C461546002200210026F0
:100A0000078C4FF6FF6C07EA0C070784828B018C7A
:100A10004FF6FF7707EA04264FF60C773A404FF679
:100A2000FF7707EA03172F433A43114FB8420ED01E
:100A3000104FB8420BD0B0F1804F08D00E4FB842E3
:100A400005D00E4FB84202D00D4FB84206D14FF636
:100A5000FF57394046F48077394305E04FF2FF579E
:100A6000394044F48077394382830184F0BD00002B
:100A7000002C014000340140000400400008004008
:100A8000000C0040F0B50C4615460022002100265F
:100A9000078C4EF6FF7C07EA0C070784828B018CDB
:100AA0004FF6FF7707EA043640F6FF473A404FF625
:100AB000FF7707EA05273A434FF6FF7707EA033740
:100AC0003A43114FB8420ED0104FB8420BD0B0F19C
:100AD000804F08D00E4FB84205D00E4FB84202D01A
:100AE0000D4FB84206D14DF6FF77394046F4805796
:100AF000394305E047F6FF57394044F480573943FE
:100B000082830184F0BD0000002C014000340140CC
:100B10000004004000080040000C00404FF08040FE
:100B2000008A4FF08040008A20F001004FF08041A1
:100B300008827047044800880348008820F00100BC
:100B400001490880704700001008004021B1028868
:100B500042F08002028004E002884FF67F731A4060
:100B600002807047CA430282704721B1028842F076
:100B70000102028004E002884FF6FE731A400280F0
:100B8000704731B1B0F8442042F40042A0F844204C
:100B900005E0B0F84420C2F30E02A0F844207047EC
:100BA000F0B50C4615461E4600210022002301899F
:100BB000028B038C4FF6F877394021434FF6FC4700
:100BC0003A4040F201173A434FF6DD773B404FF68B
:100BD000FF7707EA06172F433B4301810283038413
:100BE000F0BD000070B505460C46244885420ED085
:100BF000234885420BD0B5F1804F08D0214885426B
:100C000005D02148854202D02048854200D100E02D
:100C100000BF208850B92389A28861882846FFF741
:100C20005DFEE188284600F0A7F925E02088042829
:100C30000AD12389A28861882846FFF78FFEE188C0
:100C4000284600F0A2F917E0208808280AD1238955
:100C5000A28861882846FFF7CDFEE188284600F08B
:100C6000A1F909E02389A28861882846FFF70AFFD5
:100C7000E188284600F09FF970BD0000002C01407B
:100C8000003401400004004000080040000C004017
:100C9000002101804180012181800021C1800181EA
:100CA00070471AB183890B43838102E083898B43A8
:100CB0008381704770B5002400220023058C4FF615
:100CC000FE7635400584028C8388048B4FF68F7541
:100CD0002C40B51E2C400D882C43751E2A400D89D2
:100CE0002A434D882A43144DA8420BD0134DA842E5
:100CF00008D0134DA84205D0124DA84202D0124D83
:100D0000A84213D14FF6F7752A404D892A434FF672
:100D1000FB752A408D882A434FF6FF652B404FF61E
:100D2000FF552B408D892B43CD892B438380048332
:100D3000CD888586028470BD002C014000340140BE
:100D40000040014000440140004801400A460021A3
:100D5000018B4FF6F7731940114301837047000070
:100D600070B5002400220023058C4FF6EF76354045
:100D70000584028C8388048B48F6FF752C404FF65F
:100D8000FF452C400D884FF6FF7606EA05252C43DB
:100D90004FF6DF752A400D8906EA05152A434D886E
:100DA00006EA05152A43154DA84202D0144DA84263
:100DB0001DD14FF67F752A404D894FF6FF7606EA22
:100DC00005152A434FF6BF752A408D8806EA05159A
:100DD0002A434FF6FF352B404FF2FF752B408D898C
:100DE00006EA85052B43CD8906EA85052B438380DA
:100DF0000483CD880587028470BD0000002C01406B
:100E0000003401400A460021018B4FF2FF73194064
:100E10004FF6FF7303EA0223194301837047000072
:100E200070B5002400220023058C4FF6FF66354084
:100E30000584028C8388848B4FF68F752C404FF687
:100E4000FC752C400D882C434FF6FF552A400D8928
:100E50004FF6FF7606EA05252A434D8806EA052562
:100E60002A43154DA84202D0144DA8421DD14FF27D
:100E7000FF752A404D894FF6FF7606EA05252A437D
:100E80004FF6FF352A408D8806EA05252A434EF69F
:100E9000FF752B404DF6FF752B408D8906EA051531
:100EA0002B43CD8906EA05152B4383808483CD88A7
:100EB0008587028470BD0000002C01400034014091
:100EC0000A460021818B4FF6F77319401143818345
:100ED0007047000070B5002200230024058C4EF6F8
:100EE000FF7635400584038C8488828B48F6FF7535
:100EF0002A404FF6FF452A400D884FF6FF7606EA56
:100F000005252A434DF6FF752B400D8906EA053568
:100F10002B434D8806EA05352B430B4DA84202D0E2
:100F20000A4DA84208D14BF6FF752C408D894FF62B
:100F3000FF7606EA85152C4384808283CD88A0F84D
:100F40004050038470BD0000002C0140003401407B
:100F50000A460021818B4FF2FF7319404FF6FF7351
:100F600003EA022319438183704781867047A0F802
:100F70004010704781847047028B4FF6F3731A401C
:100F80000283028B0A4302837047028B4FF2FF33C6
:100F90001A400283028B4FF6FF7303EA01231A43C0
:100FA00002837047828B4FF6F3731A408283828BE1
:100FB0000A4382837047828B4FF2FF331A40828349
:100FC000828B4FF6FF7303EA01231A438283704733
:100FD000002202881D4B98420ED01D4B98420BD028
:100FE000B0F1804F08D01B4B984205D01A4B984265
:100FF00002D01A4B984204D14FF68F731A404B8897
:101000001A43174B984207D0164B984204D04FF61C
:10101000FF431A40CB881A4302808B8883850B8854
:1010200003850A4B98420BD0094B984208D00E4BCF
:10103000984205D00D4B984202D00D4B984201D1F9
:101040000B7A03860123838270470000002C014045
:10105000003401400004004000080040000C004043
:1010600000100040001400400040014000440140D6
:10107000004801404FF6FF71818000210180C1804E
:10108000418001727047000010B540F225511A48A6
:1010900000F04AF878B3184800F002F9C4B21748D3
:1010A00017490978445416480078401C14490870C0
:1010B00008460078642801DB002008701148007899
:1010C00054280ED11048007841280AD10F480078E2
:1010D0000D2806D10A2C04D100F0ACFC00200849F0
:1010E00008700948007807490870084800780649E0
:1010F00008700648047010BD0048004046000020FB
:10110000240000202E0000202D0000202C000020B4
:1011100021B1828942F40052828104E082894DF635
:10112000FF731A408281704770B502460024002385
:101130000025002040F66A16B14200D100BFC1F37D
:10114000421501F01F03012606FA03F3012D02D117
:101150009689334006E0022D02D1168A334001E021
:10116000968A33400C12012606FA04F4168834409D
:1011700013B10CB1012000E0002070BDF0B50346B2
:10118000002400260025002040F66A17B94200D14D
:1011900000BF1846C1F3421401F01F06012707FAE9
:1011A00006F5012C01D10C3004E0022C01D11030E5
:1011B00000E014301AB107682F43076002E00768A7
:1011C000AF430760F0BD00002DE9F04786B005464B
:1011D0000E460024A24600BFA1460027B08900B1F8
:1011E00000BF2F462C8A4CF6FF700440F088044361
:1011F0002C82AC894EF6F3100440B0883189084344
:10120000718908430443AC81AC8A4FF6FF40044027
:10121000B0890443AC8201A8FFF7F6F91F48874262
:1012200002D1DDF810A001E0DDF80CA0A88900F4DF
:10123000004040B10AEBCA0000EB0A1031684900D7
:10124000B0FBF1F807E00AEBCA0000EB0A103168C6
:101250008900B0FBF1F86420B8FBF0F0040120092C
:10126000642101FB1089A88900F4004040B13220BC
:1012700000EBC900B0FBF1F000F00700044308E008
:10128000322000EB09106421B0FBF1F000F00F00F8
:1012900004432C8106B0BDE8F0870000003801400F
:1012A00001468888C0F30800704700BFFEE70000D1
:1012B0000FB4054B10B503A9044A029800F018F8C2
:1012C00010BC5DF814FB00009D17000828000020EA
:1012D00002E008C8121F08C1002AFAD170477047FF
:1012E000002001E001C1121F002AFBD1704700005D
:1012F0002DE9FF4F8DB09B460F460446002606E0C1
:1013000025280BD05A460F999047641C761C2078EC
:101310000028F5D111B03046BDE8F08F0025A84671
:101320000122984900E0054314F8013F203B02FAEE
:1013300003F00842F7D120782E2817D114F8010FB6
:1013400045F004052A280ED06FF02F022078A0F176
:10135000300109290AD808EB880102EB410100EBB2
:101360000108641CF2E757F8048B641C20786C2891
:101370000DD004DC4C2812D06A2811D104E0742866
:101380000DD07A280CD10AE045F4001507E0617809
:1013900045F48015814202D1641C05F58015641C5A
:1013A0002078692844D008DC0028B3D0582867D0BA
:1013B00063280FD0642808D13AE0702865D07328DC
:1013C00012D075285AD078285AD05A460F9990478B
:1013D000761CD5E017F8040B8DF8000000208DF87E
:1013E0000100E946012003E057F8049B4FF0FF306D
:1013F00069074FF0000501D40AE06D1C45450DDA80
:101400008542FADB19F805100029F6D106E06D1CBB
:101410008542FCDB19F805100029F8D12E4404E0C0
:1014200019F8010B5A460F9990476D1EF8D2A7E0A4
:101430000A200021CDE90801C5F3025002280CD092
:1014400001CFC117021E71F100020CDA0023D0EBAC
:10145000030063EB01012D2208E0FF1D27F00707C1
:10146000F7E80201EEE72A0504D52B228DF82820A3
:1014700001223CE0EA073AD02022F7E70A2000E008
:1014800010200021CDE9080107E01020002145F0DF
:101490000405CDE908014FF00808C5F30250022801
:1014A00010D001CF00214FF0000A2A0720D5227862
:1014B000702A0DD0DDE908C38CF0100C5CEA030C37
:1014C0000CD015E0FF1D27F00707F7E80201EAE757
:1014D00040228DF828204FF0010A0CE050EA010369
:1014E00006D030238DF828308DF82920022292462C
:1014F0002278582A04D024A20DF120090B9209E089
:1015000026A2F9E7DDE90823FEF7A6FE0B9B9B5C0C
:1015100009F8013D50EA0102F4D1ADEB0900203099
:101520000890680701D44FF001080899884503DD49
:101530000898A8EB000000E000208046002506E0A7
:101540000AA85A46405D0F9990476D1C761C554578
:10155000F6DB04E030205A460F999047761CB8F12C
:101560000001A8F10108F5DC05E019F8010B5A4665
:101570000F999047761C0899481E08900029F4DCC2
:10158000641CC4E609280100303132333435363763
:1015900038396162636465660000000030313233BF
:1015A000343536373839414243444546000000005F
:1015B00010B50346002404E04FF47A7000F004F8FC
:1015C000641C9C42F8DB10BD002148E000BF00BF56
:1015D00000BF00BF00BF00BF00BF00BF00BF00BF13
:1015E00000BF00BF00BF00BF00BF00BF00BF00BF03
:1015F00000BF00BF00BF00BF00BF00BF00BF00BFF3
:1016000000BF00BF00BF00BF00BF00BF00BF00BFE2
:1016100000BF00BF00BF00BF00BF00BF00BF00BFD2
:1016200000BF00BF00BF00BF00BF00BF00BF00BFC2
:1016300000BF00BF00BF00BF00BF00BF00BF00BFB2
:1016400000BF00BF00BF00BF00BF00BF00BF00BFA2
:1016500000BF00BF00BF00BF00BF00BF491C8142E8
:10166000B4DB704700B587B001210846FEF7ACFF38
:1016700001210420FEF7B8FF0320ADF8000004208C
:101680008DF8030069461D48FEF7A8FE04A8FFF781
:10169000F1FC0020ADF810004FF6FF70ADF814001B
:1016A0000020ADF81600ADF8120004A94FF08040FC
:1016B000FFF78EFC0A231A4603215807FFF770FA3A
:1016C00001A8FFF7E5FA0A20ADF80C0001A94007D0
:1016D000FFF788FA01218807FFF744FA0122114633
:1016E0009007FFF7DEFA00214FF08040FFF742FC41
:1016F00001218807FFF739FA07B000BD0008014053
:1017000000B587B001210420FEF75EFF012108200B
:10171000FEF76AFFC020ADF8000004208DF803003A
:1017200069461C48FEF75AFE04A8FFF7A3FC0020F8
:10173000ADF810004FF6FF70ADF814000020ADF8C2
:101740001600ADF8120004A91348FFF741FC0A2364
:101750001A4603211048FFF723FA01A8FFF798FA69
:101760000A20ADF80C0001A90B48FFF73BFA012154
:101770000948FFF7F7F9012211460748FFF791FAE8
:1017800000210548FFF7F6FB01210348FFF7EDF9BB
:1017900007B000BD000C014000080040C2B2054B7C
:1017A0001A8000BF034A121F128802F04002002A6A
:1017B000F8D070470448004086B04420394908708A
:1017C000412048700B2088705420C8714120087255
:1017D0000D2048720A208872084633490860FFF7D6
:1017E0004DF84FF4A060FEF7E3FE01A8FEF70CFFF2
:1017F000FEF788FE01214FF4E15000F09FF8FFF75B
:1018000031FFFFF77DFF0021084600F057F84FF445
:101810009661084600F052F84FF4FA70FFF7C8FEE0
:101820000021084600F04AF84FF4E13000F066F974
:101830000198FEF7EBFC07461C4A1D4BFEF774FCB3
:101840000546FEF7F0FC0446B4F1807F01D36FF04B
:101850007F442146481EB0F1807F01D301201BE068
:10186000481E4FF0E022506150170F22002804DB81
:1018700013071D0E0F4B1D5406E013071E0E0E4BD3
:1018800000F00F052D1F5E5500BF00204FF0E02235
:10189000906107201061002008B100BFFEE700BF83
:1018A000FEE700003B000020080000207B14AE474C
:1018B000E17A943F00E400E018ED00E070B50446E2
:1018C0000D46002C0BDA64424FF480511948FEF7A4
:1018D00010FE4FF400511748FEF70DFE09E04FF4DB
:1018E00080511448FEF707FE4FF400511148FEF7EF
:1018F00000FE002D0BDA6D424FF400410D48FEF75B
:10190000F8FD4FF480410B48FEF7F5FD09E04FF478
:1019100000410848FEF7EFFD4FF480410548FEF70F
:10192000E8FDA1B20448FFF722FBA9B20248FFF785
:101930001CFB70BD000C0140002C014030B589B08B
:1019400005460C460121C802FEF74EFE0121042087
:10195000FEF74AFE4FF41060ADF8200018208DF815
:10196000230003208DF8220008A92648FEF736FD43
:10197000681E80B2ADF81800601E80B2ADF8140089
:101980000020ADF81A00ADF8160005A91E48FFF7B3
:101990001FFB6020ADF804000120ADF80600002018
:1019A000ADF80A00ADF80C0001A91748FFF782F95D
:1019B00008211548FFF7CAF901A91348FFF7D0F924
:1019C00008211148FFF71EFA01A90F48FFF728FA6E
:1019D00008210D48FFF774FA01A90B48FFF77AFABE
:1019E00008210948FFF7B4FA01210748FFF7AEF8CC
:1019F00001210548FFF7B9F801210348FFF7C1F8B5
:101A000009B030BD00080140002C01404FF080417A
:101A1000898C08B200214FF0804291847047000009
:101A20000349098808B20021014A1180704700006B
:101A30002408004010B52A480078442803D12848DB
:101A40004078412810D0002406E02548015D25A0FB
:101A5000FFF72EFC601CC4B2244800788442F4DBFB
:101A600023A0FFF725FC10BD1D4880781F49097889
:101A7000884210D0002406E01948015D19A0FFF744
:101A800017FC601CC4B2194800788442F4DB18A02B
:101A9000FFF70EFCE7E7154800780B2810D000246C
:101AA00006E00F48015D0FA0FFF702FC601CC4B206
:101AB0000E4800788442F4DB0DA0FFF7F9FBD2E773
:101AC0000C49074802680A6042684A6002890A8134
:101AD000807A887201200849086000BFC3E70000CF
:101AE00046000020307825782000000024000020E7
:101AF0000D0A0000300000200000002010B586B064
:101B0000044601210920FEF76FFD01218804FEF73C
:101B10005BFD4FF48060ADF8140003208DF81600D3
:101B200018208DF8170005A91C48FEF757FC272040
:101B30008DF8000000208DF801008DF802000120D2
:101B40008DF803006846FEF7FBFC4FF40060ADF82B
:101B5000140004208DF8170005A91048FEF73EFC7C
:101B600001940020ADF80800ADF80A00ADF80C00B3
:101B7000ADF810000C20ADF80E0001A90848FFF7E1
:101B800023FB012240F225510548FFF7F7FA012116
:101B90000348FFF7BDFA06B010BD0000000C01407D
:101BA00000480040C41B0008000000203000000076
:101BB000D0120008F41B0008300000208010000044
:101BC000E01200080000000000000000000000001B
:101BD00000000000000000000102030401020304F1
:101BE00006070809020406080000000000000000C3
:041BF00000000000F1
:04000005080000ED02
:00000001FF
