:020000040800F2
:10000000B01000200501000819080008D9070008F1
:10001000DD070008B506000887150008000000008D
:10002000000000000000000000000000B909000806
:10003000B906000800000000A1080008A50A000891
:100040001F0100081F0100081F0100081F01000810
:100050001F0100081F0100081F0100081F01000800
:100060001F0100081F0100081F0100081F010008F0
:100070001F0100081F0100081F0100081F010008E0
:100080001F0100081F0100081F0100081F010008D0
:100090001F0100081F0100081F0100081F010008C0
:1000A0001F0100081F0100081F0100081F010008B0
:1000B000F90D00081F010008110E00081F010008BB
:1000C0001F0100081F0100081F0100081F01000890
:1000D0001F0100081F0100081F0100086513000828
:1000E0001F0100081F0100081F010008DFF810D0E1
:1000F00000F0CEFA0048004751200008AFF300801E
:10010000B01000200648804706480047FEE7FEE79B
:10011000FEE7FEE7FEE7FEE7FEE7FEE7FEE7FEE7B7
:10012000590B0008ED0000082DE9FE4F804681EADA
:100130000300C00F0C46009021F0004123F0004561
:10014000B8EB0200A94105D24046214690461C4624
:100150000B46024623F00040104347D0270DC7F35B
:100160000A00C3F30A510290401A019040286BDA4A
:10017000C3F3130040F4801B0098924620B1002383
:10018000D2EB030A63EB0B0B01985946C0F1400216
:10019000504600F0BEF906460D4650465946019AB3
:1001A00000F0D6F910EB08006141002487EA1152F3
:1001B00084EAE7731A4340D0009A62B3019A012A95
:1001C0004FEA075215DC001B61EB02014FF00042C1
:1001D00002EA0752CDE90042001C41F58011324687
:1001E0002B4600F0D6F903B0BDE8F08F404621461B
:1001F000F9E7001B61EB0201001C41F580130018B8
:100200005B412018A2F5001747EB030140EAD570C7
:10021000B6196D4111E06D084FEA360645EAC07522
:100220004FEA0752001B61EB0201001C41F58011EF
:1002300049084FEA30000019514132462B4603B0BD
:10024000BDE8F04F00F096B900980122400000236D
:10025000D0EB020263EBE073009821464FEAE074B2
:10026000B8EB000061EB0401E9E783F000435BE7D2
:1002700081F0004158E72DE9FE4F81EA030404F0C4
:10028000004421F0004100944FF0000B23F00043A4
:1002900050EA01045ED052EA03045BD0C3F30A546F
:1002A000C1F30A552C44A4F2F3340194A0FB025488
:1002B000C1F3130141F48011C3F3130343F480131A
:1002C00001FB024400FB034E840A970A44EA81546E
:1002D00047EA8357A4FB076802958D0A05FB07854B
:1002E0004FEA932C04FB0C542705029D4FEA065855
:1002F00047EA1637B5EB08056EEB070C870E920E32
:1003000047EA811742EA8312A7FB0201B6EB0B0111
:1003100064EB00042B0D43EA0C335E1844EB1C50D5
:10032000DA465146E7FB0201C5F313044FEA0B33EB
:1003300043EA14534FEA0432019C43EA0603A4F152
:100340000C040294009CCDE900B400F022F903B043
:10035000BDE8F08F00200146F9E72DE9F04D81EA74
:10036000030404F0004B21F0004514464FF0000A4E
:1003700023F0004150EA050220D054EA01021DD0CA
:10038000C5F30A570246C5F31303C1F31300C1F3C3
:100390000A5640F4801543F48013A7EB0608101B9F
:1003A000D64608F2FD3873EB050002D308F10108C8
:1003B00001E092185B41B8F1000F03DA002001461A
:1003C000BDE8F08D00204FF48011064684460EE013
:1003D000171B73EB050705D3121B63EB05030643DD
:1003E0004CEA010C49084FEA300092185B4150EA90
:1003F0000107EDD152EA030012D082EA040083EA39
:100400000501084305D0101BAB4106D20122002391
:1004100006E000224FF0004302E06FF001025310AB
:100420001AEB06004CEB085110EB0A0041EB0B01F4
:10043000BDE8F04D00F09EB80EB540F23341029198
:100440000021CDE900110A460B4600F0A2F803B0E6
:1004500000BDC1F30A5210B5C1F3130140F2FF33DE
:1004600041F480119A4201DA002010BD40F233437A
:100470009A42A2F2334203DC524200F059F810BD16
:10048000904010BD30B50B460146002020220124CB
:1004900009E021FA02F59D4205D303FA02F5491B52
:1004A00004FA02F52844151EA2F10102F1DC30BD68
:1004B0002DE9F05F0546002092469B468846064699
:1004C000814640241BE0284641464746224600F02C
:1004D0002FF853465A46C01A914110D31146184678
:1004E000224600F016F82D1A67EB01084F46224607
:1004F0000120002100F00DF817EB00094E41201EED
:10050000A4F10104DFDC484631462A464346BDE8F3
:10051000F09F202A04DB203A00FA02F10020704705
:100520009140C2F1200320FA03F319439040704731
:10053000202A04DB203A21FA02F00021704721FA38
:1005400002F3D040C2F1200291400843194670479F
:10055000202A06DBCB17203A41FA02F043EAE07387
:1005600006E041FA02F3D040C2F120029140084374
:100570001946704710B5141E73F1000408DA401CC8
:1005800041F1000192185B411A4301D120F00100B2
:1005900010BD2DE9F04D92469B4611B1B1FA81F2A2
:1005A00002E0B0FA80F220329046FFF7B2FF044634
:1005B0000F4640EA0A0041EA0B0153465A460843F7
:1005C00013D0114653EA010019D0C8F14002504639
:1005D000FFF7AEFF05460E46504659464246FFF726
:1005E00098FF084305D0012004E020463946BDE8C5
:1005F000F08D0020054346EAE0762C4337430A9805
:100600006305E40AA0EB08000022FD0A44EA47540F
:100610000A3002D500200146E9E7010510196941B9
:10062000DDE9084500196941BDE8F04DA2E7C1F3D5
:100630000A52C1F3130140F2FF3341F480119A4290
:1006400002DA00200146704740F233439A42A2F298
:10065000334202DC5242FFF76BBFFFF75ABF000084
:1006600030B5041E71F1000404DB4FF00044404239
:1006700064EB0101141E73F1000405DB1C464FF00E
:100680000043524263EB0403994208BF904230BDDD
:10069000064C074D06E0E06840F0010394E80700CF
:1006A00098471034AC42F6D3FFF724FD40240008ED
:1006B0006024000800BFFEE770472DE9F0410246C4
:1006C00000250026002000230024002791F803C005
:1006D0000CF00F0591F803C00CF0100CBCF1000FEA
:1006E00003D091F802C04CEA050591F800C0BCF1B6
:1006F000000F31D0146800202BE04FF0010C0CFAF1
:1007000000F3B1F800C00CEA03069E4220D183003A
:100710004FF00F0C0CFA03F7BC4305FA03FC4CEA4C
:10072000040491F803C0BCF1280F06D14FF0010C6E
:100730000CFA00FCC2F814C00AE091F803C0BCF146
:10074000480F05D14FF0010C0CFA00FCC2F810C0A4
:10075000401C0828D1D31460B1F800C0BCF1FF0FD1
:1007600034DD546800202EE000F1080C4FF0010841
:1007700008FA0CF3B1F800C00CEA03069E4221D13E
:1007800083004FF00F0C0CFA03F7BC4305FA03FC8F
:100790004CEA040491F803C0BCF1280F05D100F124
:1007A000080C08FA0CF8C2F8148091F803C0BCF1E8
:1007B000480F07D100F1080C4FF0010808FA0CF8B7
:1007C000C2F81080401C0828CED35460BDE8F081E8
:1007D000416170470161704700BFFEE700BFFEE75F
:1007E00008B50121082000F06DF810208DF80300F5
:1007F0004FF47040ADF8000003208DF80200694608
:100800000448FFF75AFF4FF470410248FFF7E0FF3A
:1008100008BD0000000C01407047000070B50021C9
:1008200000230F22C47804B3154C246804F4E06458
:10083000C4F5E064210AC1F10403CA40447804FA13
:1008400003F184781440214309010E4C0678A15528
:10085000047804F01F050124AC4005786D11AD004B
:1008600005F1E025C5F8004109E0047804F01F0512
:100870000124AC40044D0678761145F8264070BD41
:100880000CED00E000E400E080E100E002490143FB
:10089000024A1160704700000000FA050CED00E00C
:1008A0007047000029B1064AD2690243044BDA615D
:1008B00004E0034AD2698243014BDA6170470000C9
:1008C0000010024029B1064A92690243044B9A6122
:1008D00004E0034A92698243014B9A617047000029
:1008E0000010024030B500210022002400232D4DCD
:1008F0006D6805F00C0121B1042905D0082923D128
:1009000005E0294D056022E0274D05601FE0254DDB
:100910006D6805F47012234D6D6805F4803402256E
:1009200005EB92421CB9214D554305600BE01D4D6E
:100930006D6805F400351DB11C4D5543056002E09E
:10094000194D5543056002E0174D056000BF00BF1B
:10095000144D6D6805F0F0010909154D6B5C0568D3
:10096000DD4045600F4D6D6805F4E061090A104DEA
:100970006B5C4568DD4085600A4D6D6805F460512B
:10098000C90A0B4D6B5C4568DD40C560054D6D685F
:1009900005F44041890B074D6B5CC568B5FBF3F569
:1009A000056130BD0010024000127A0000093D00D0
:1009B0001000002020000020704710B500F002F861
:1009C00010BD00000CB50020019000903348006875
:1009D00040F480303149086000BF3048006800F4BE
:1009E000003000900198401C0190009818B90198BF
:1009F000B0F5A06FF1D12948006800F4003010B1C3
:100A00000120009001E0002000900098012843D1CF
:100A10002348006840F0100021490860084600683B
:100A200020F0070008600846006840F002000860F7
:100A30001A484068194948600846406848600846B6
:100A4000406840F4806048600846406820F47C10AC
:100A500048600846406840F4E8104860084600686E
:100A600040F08070086000BF0C48006800F0007023
:100A70000028F9D00948406820F003000749486081
:100A80000846406840F00200486000BF03484068E4
:100A900000F00C000828F9D10CBD00000010024045
:100AA0000020024070B501F0FFFB05B201F006FC2A
:100AB000404206B22048006801280ED100201E499D
:100AC00008601E4908601E48B0F803001D490880F0
:100AD0001B48B0F805001C49088018480068052824
:100AE00005DB0020174908801749088004E01348F7
:100AF0000068401C114908601348B0F90010114803
:100B0000B0F9000001F028FB1048A0F80350A0F84D
:100B1000056000240DE00E480068005D0D49088066
:100B200000BF0C48001F008800F040000028F8D0EB
:100B3000641C0B2CEFD370BD0000002004000020CB
:100B4000300000200C0000200E0000203B000020A0
:100B5000080000200448004010B51348006840F029
:100B600001001149086008464068104908400E49D4
:100B70004860084600680E4908400B49086008466E
:100B8000006820F4802008600846406820F4FE00D9
:100B900048604FF41F008860FFF70FFF4FF00060C0
:100BA0000449086010BD0000001002400000FFF87A
:100BB000FFFFF6FE08ED00E0F0B50C4615460022FA
:100BC0000021068C4FF6FE773E400684028B018C96
:100BD0004FF60C7632407E1C06EA03162E43324353
:100BE000104EB0420ED0104EB0420BD0B0F1804F3C
:100BF00008D00E4EB04205D00D4EB04202D00D4E80
:100C0000B04206D14FF6FD76314044F00106314343
:100C100005E04FF6F576314044F00106314302839A
:100C20000184F0BD002C014000340140000400406C
:100C300000080040000C0040F0B50C4615460022AC
:100C400000210026078C4FF6EF7C07EA0C0707848B
:100C5000028B018C4FF6FF7707EA041640F6FF4738
:100C60003A404FF6FF7707EA03373A434FF6FF77EC
:100C700007EA05273A43114FB8420ED0104FB84249
:100C80000BD0B0F1804F08D00E4FB84205D00E4FB8
:100C9000B84202D00D4FB84206D14FF6DF77394047
:100CA00046F01007394305E04FF65F77394044F0CE
:100CB0001007394302830184F0BD0000002C01407D
:100CC000003401400004004000080040000C0040D7
:100CD000F0B50C461546002200210026078C4FF681
:100CE000FF6C07EA0C070784828B018C4FF6FF77B5
:100CF00007EA04264FF60C773A404FF6FF7707EAEB
:100D000003172F433A43114FB8420ED0104FB84249
:100D10000BD0B0F1804F08D00E4FB84205D00E4F27
:100D2000B84202D00D4FB84206D14FF6FF573940B6
:100D300046F48077394305E04FF2FF57394044F4D9
:100D40008077394382830184F0BD0000002C01408C
:100D5000003401400004004000080040000C004046
:100D6000F0B50C461546002200210026078C4EF6F1
:100D7000FF7C07EA0C070784828B018C4FF6FF7714
:100D800007EA043640F6FF473A404FF6FF7707EA96
:100D900005273A434FF6FF7707EA03373A43114FE7
:100DA000B8420ED0104FB8420BD0B0F1804F08D0EF
:100DB0000E4FB84205D00E4FB84202D00D4FB84288
:100DC00006D14DF6FF77394046F48057394305E0A8
:100DD00047F6FF57394044F48057394382830184F2
:100DE000F0BD0000002C0140003401400004004030
:100DF00000080040000C00404FF08040008A4FF097
:100E00008040008A20F001004FF080410882704746
:100E1000044800880348008820F001000149088048
:100E2000704700001008004021B1028842F08002A3
:100E3000028004E002884FF67F731A4002807047F8
:100E4000CA430282704721B1028842F00102028047
:100E500004E002884FF6FE731A400280704731B1F9
:100E6000B0F8442042F40042A0F8442005E0B0F875
:100E70004420C2F30E02A0F844207047F0B50C469F
:100E800015461E460021002200230189028B038C97
:100E90004FF6F877394021434FF6FC473A4040F28D
:100EA00001173A434FF6DD773B404FF6FF7707EAED
:100EB00006172F433B43018102830384F0BD0000EA
:100EC00070B505460C46244885420ED0234885421D
:100ED0000BD0B5F1804F08D02148854205D021487C
:100EE000854202D02048854200D100E000BF208822
:100EF00050B92389A28861882846FFF75DFEE18802
:100F0000284600F0A7F925E0208804280AD1238983
:100F1000A28861882846FFF78FFEE188284600F006
:100F2000A2F917E0208808280AD12389A2886188BD
:100F30002846FFF7CDFEE188284600F0A1F909E038
:100F40002389A28861882846FFF70AFFE18828469E
:100F500000F09FF970BD0000002C014000340140FA
:100F60000004004000080040000C00400021018007
:100F70004180012181800021C180018170471AB127
:100F800083890B43838102E083898B43838170478C
:100F900070B5002400220023058C4FF6FE76354004
:100FA0000584028C8388048B4FF68F752C40B51E08
:100FB0002C400D882C43751E2A400D892A434D88EC
:100FC0002A43144DA8420BD0134DA84208D0134D0C
:100FD000A84205D0124DA84202D0124DA84213D10A
:100FE0004FF6F7752A404D892A434FF6FB752A4084
:100FF0008D882A434FF6FF652B404FF6FF552B4057
:101000008D892B43CD892B4383800483CD888586AE
:10101000028470BD002C01400034014000400140BA
:1010200000440140004801400A460021018B4FF670
:10103000F7731940114301837047000070B5002415
:1010400000220023058C4FF6EF7635400584028C94
:101050008388048B48F6FF752C404FF6FF452C40E3
:101060000D884FF6FF7606EA05252C434FF6DF750F
:101070002A400D8906EA05152A434D8806EA05151A
:101080002A43154DA84202D0144DA8421DD14FF657
:101090007F752A404D894FF6FF7606EA05152A43EB
:1010A0004FF6BF752A408D8806EA05152A434FF68C
:1010B000FF352B404FF2FF752B408D8906EA8505E1
:1010C0002B43CD8906EA85052B4383800483CD8895
:1010D0000587028470BD0000002C014000340140EF
:1010E0000A460021018B4FF2FF7319404FF6FF7340
:1010F00003EA0223194301837047000070B50024FE
:1011000000220023058C4FF6FF6635400584028CD3
:101110008388848B4FF68F752C404FF6FC752C40DE
:101120000D882C434FF6FF552A400D894FF6FF7668
:1011300006EA05252A434D8806EA05252A43154D6A
:10114000A84202D0144DA8421DD14FF2FF752A408B
:101150004D894FF6FF7606EA05252A434FF6FF35FF
:101160002A408D8806EA05252A434EF6FF752B4056
:101170004DF6FF752B408D8906EA05152B43CD8969
:1011800006EA05152B4383808483CD8885870284F6
:1011900070BD0000002C0140003401400A460021CF
:1011A000818B4FF6F773194011438183704700001C
:1011B00070B5002200230024058C4EF6FF763540E2
:1011C0000584038C8488828B48F6FF752A404FF68D
:1011D000FF452A400D884FF6FF7606EA05252A438B
:1011E0004DF6FF752B400D8906EA05352B434D88DA
:1011F00006EA05352B430B4DA84202D00A4DA84202
:1012000008D14BF6FF752C408D894FF6FF7606EA24
:1012100085152C4384808283CD88A0F840500384B8
:1012200070BD0000002C0140003401400A4600213E
:10123000818B4FF2FF7319404FF6FF7303EA0223CD
:1012400019438183704781867047A0F8401070472A
:1012500081847047028B4FF6F3731A400283028B2E
:101260000A4302837047028B4FF2FF331A40028316
:10127000028B4FF6FF7303EA01231A430283704780
:10128000828B4FF6F3731A408283828B0A438283E8
:101290007047828B4FF2FF331A408283828B4FF666
:1012A000FF7303EA01231A438283704700220288F6
:1012B0001D4B98420ED01D4B98420BD0B0F1804F81
:1012C00008D01B4B984205D01A4B984202D01A4BBB
:1012D000984204D14FF68F731A404B881A43174B2C
:1012E000984207D0164B984204D04FF6FF431A405D
:1012F000CB881A4302808B8883850B8803850A4B31
:1013000098420BD0094B984208D00E4B984205D01A
:101310000D4B984202D00D4B984201D10B7A0386B7
:101320000123838270470000002C014000340140FB
:101330000004004000080040000C00400010004085
:1013400000140040004001400044014000480140BA
:101350004FF6FF71818000210180C18041800172C0
:101360007047000010B540F225511A4800F04AF8C5
:1013700078B3184800F002F9C4B217481749097841
:10138000445416480078401C1449087008460078F8
:10139000642801DB002008701148007854280ED121
:1013A0001048007841280AD10F4800780D2806D14E
:1013B0000A2C04D100F08CFF00200849087009486D
:1013C0000078074908700848007806490870064800
:1013D000047010BD0048004046000020240000209A
:1013E0002E0000202D0000202C00002021B1828939
:1013F00042F40052828104E082894DF6FF731A4064
:101400008281704770B50246002400230025002029
:1014100040F66A16B14200D100BFC1F3421501F097
:101420001F03012606FA03F3012D02D196893340EA
:1014300006E0022D02D1168A334001E0968A33403D
:101440000C12012606FA04F41688344013B10CB1CC
:10145000012000E0002070BDF0B503460024002606
:101460000025002040F66A17B94200D100BF184697
:10147000C1F3421401F01F06012707FA06F5012CFB
:1014800001D10C3004E0022C01D1103000E0143006
:101490001AB107682F43076002E00768AF4307608F
:1014A000F0BD00002DE9F04786B005460E46002449
:1014B000A24600BFA1460027B08900B100BF2F4659
:1014C0002C8A4CF6FF700440F08804432C82AC89CF
:1014D0004EF6F3100440B0883189084371890843FF
:1014E0000443AC81AC8A4FF6FF400440B08904430A
:1014F000AC8201A8FFF7F6F91F48874202D1DDF858
:1015000010A001E0DDF80CA0A88900F4004040B173
:101510000AEBCA0000EB0A1031684900B0FBF1F891
:1015200007E00AEBCA0000EB0A1031688900B0FB43
:10153000F1F86420B8FBF0F004012009642101FBFC
:101540001089A88900F4004040B1322000EBC900A6
:10155000B0FBF1F000F00700044308E0322000EB9C
:1015600009106421B0FBF1F000F00F0004432C815E
:1015700006B0BDE8F08700000038014001468888C9
:10158000C0F30800704700BFFEE700000FB4054B32
:1015900010B503A9044A029800F0DAF810BC5DF80F
:1015A00014FB0000352000082800002002E008C8D5
:1015B000121F08C1002AFAD170477047002001E0CD
:1015C00001C1121F002AFBD1704700002DE9FF5F07
:1015D00082B00021DDE90430020DDDF840B00343A4
:1015E00018D044F61050A2F2FF324243151411985D
:1015F00001281FD0A5EB0B00401C5FEA000A4FF04A
:1016000000064E4FDFF83891B046504615D5CAF166
:10161000000413E0119801244AA3012801D16FEAC4
:101620000B010298119AC0E90031C0E9024206B0EC
:10163000BDE8F09FCBF10000DFE704460021404AFF
:10164000491842EB0450CDE9001012E0E00707D042
:1016500032463B4640464946FEF70DFE80468946E7
:1016600032463B4610461946FEF705FE06460F4633
:101670006410002CEAD1DDE90401DDE90023BAF1B0
:10168000000F06DAFEF7F7FD42464B46FEF7F3FD84
:1016900005E0FEF762FE42464B46FEF75EFE04465C
:1016A0000E460022284BFEF7DBFF03D84FF0FF3039
:1016B000014607E00022254B20463146FEF734FD67
:1016C000FEF7B5FF102409E0002C0ADB0A220023F4
:1016D000FEF7EEFE039B30321A55641E50EA0102FB
:1016E000F2D1641C039AC4F111031444119A012A23
:1016F00003D0012208430DD10AE0084304D00020A2
:101700004FF0110B119072E7A3EB0B056D1E0DE06E
:101710005B4504DD4FF0000205F1010504E003DA4A
:101720004FF00002A5F10105002AECD002981199B2
:10173000C0E90231C0E9004579E70000000014402B
:101740000000F03F300000000000F0430000E03FE8
:101750002DE9FF4F95B09A46884606460025EEE1F2
:10176000252877D100242746F94A0121039400E077
:10177000044316F8013F203B01FA03F01042F7D171
:1017800030782A2811D06FF02F033078A0F1300282
:10179000092A16D8039A44F0020402EB820203EBF2
:1017A00042021044761C0390EFE758F8042B039292
:1017B000002A03DA504244F40054039044F0020437
:1017C000761C30782E2816D116F8010F44F0040448
:1017D0002A280DD06FF02F023078A0F13003092BAA
:1017E00009D807EB870302EB4303C718761CF3E71E
:1017F00058F8047B761C30786C280FD006DC4C2817
:1018000017D068280DD06A2814D104E0742810D0AD
:101810007A280FD10DE044F400140AE044F4801457
:1018200001E044F440147278824202D104F580143D
:10183000761C761C307866280BD013DC582877D0BD
:1018400009DC002875D04528F6D04628F4D0472872
:101850001AD193E118E0632835D0642879D065283F
:1018600012D18BE1702873D008DC6728F1D0692889
:101870006FD06E280DD06F2806D1ACE073282CD025
:10188000752874D0782853D05246179990476D1C0C
:1018900054E1C4F30250022809D003280DD0D8F82F
:1018A000001004280DD00D6008F1040846E1D8F8B6
:1018B0000010EA17C1E90052F6E7D8F800100D80D1
:1018C000F2E70D70F0E718F8041B8DF80010002007
:1018D0008DF80100EB46012003E058F804BB4FF0FF
:1018E000FF3061074FF0000102D40DE009F1010162
:1018F0008946B9420FDA8145F8DB1BF80910002947
:10190000F4D108E009F1010189468142FADB1BF8B4
:1019100009100029F6D103985346A0EB0907214688
:101920003846179A00F080FA284400EB090507E0D2
:1019300044E008E10DE01BF8010B5246179990476F
:10194000B9F10109F7D2534621463846179AF2E019
:1019500039E00A21C4F302524FF0000B0091022A31
:1019600006D058F8040BC117032A09D00AE023E077
:1019700008F1070020F00702F2E80201904605E0B6
:1019800000B2C117042A01D140B2C117002906DAFA
:101990000A460021404261EB02012D2202E02205AD
:1019A00004D52B228DF80420012203E0E20701D0A8
:1019B0002022F7E7914657E00A2100E010214FF07E
:1019C000000B00910BE010214FF0000B44F00404D9
:1019D0000827009103E008204FF0000B0090C4F3AB
:1019E0000252022A05D058F8040B0021032A08D01D
:1019F00008E008F1070020F00702F2E80201904633
:101A000003E080B2042A00D1C0B24FF000092207DF
:101A10002AD53278702A07D0DDF800C08CF0100C7F
:101A20005CEA0B0C05D00EE040228DF80420012268
:101A300008E050EA010306D030238DF804308DF819
:101A4000052002229146009B83F0080353EA0B0312
:101A50000AD150EA010201D1620705D530228DF882
:101A600004204FF001097F1E3278582A04D039A291
:101A70000C920CAA02920BE03BA2F9E75B46009A9B
:101A8000FEF716FD0C9B9B5C029A521E029213708D
:101A900050EA0102F2D1029804A9081A00F1200BC1
:101AA000600702D524F4803400E001275F4502DDA1
:101AB000A7EB0B0000E0002000EB0B010090039867
:101AC0004944401A0390E00306D453462146179A2E
:101AD000039800F0A9F90544002706E001A8524642
:101AE000C05D179990476D1C7F1C4F45F6DBE003E6
:101AF0000CD553462146179A039800F095F90544F2
:101B000004E030205246179990476D1C0099481EFA
:101B100000900029F5DC08E002980299524600780E
:101B2000491C0291179990476D1CBBF10001ABF164
:101B3000010BF1DC5BE100F065F90544761C3078BF
:101B400000287FF40DAE19B02846BDE8F08F0000E4
:101B50000928010030313233343536373839616283
:101B60006364656600000000303132333435363747
:101B7000383941424344454600000000600700D424
:101B8000062708F1070020F00700F0E8022380464E
:101B900003F0004C5FEA0C0001D097A009E020059B
:101BA00001D596A005E0E00701D095A001E0AFF2D5
:101BB0004C001390307823F0004365280CD006DCED
:101BC000452809D046281DD047287FD13BE066280C
:101BD00018D067287AD136E00021112F01DB1120BF
:101BE00000E0781CCDE9000104A90CA8FFF7EEFC89
:101BF000DDE90D010C9A4FF0000B07F1010910927D
:101C000000914EE04FF000400097CDE9011004A98B
:101C10000CA8FFF7DBFCDDE90D020C9B0F994FF0E0
:101C2000000B91461093009211B9791C00EB010949
:101C3000B7EB090003D4C0F1FF3B07F10109A9EBA1
:101C40000700019042E0012F00DA01270021112F47
:101C500001DD112000E03846CDE9000104A90CA8FF
:101C6000FFF7B4FCDDE90D010C9A00914FF0000B79
:101C7000B946109221070FD4009A4A4503DA9146DB
:101C800001E0A9F10109B9F1010F05DD109AA9F1EF
:101C90000101515C3029F4D0B84202DA10F1040F8E
:101CA00003DA0121CDE9011010E0002803DC8344B0
:101CB000A9EB000102E0411C494500DD8946A0EB8B
:101CC0000B00401C01904FF000400290200705D40B
:101CD0000198484502DB4FF0FF30019000208DF85D
:101CE0004B0002980DF14B07B0F1004F25D00220B8
:101CF0000C902B200D90029800280CDA40420290A4
:101D00002D200D9007E00A210298FEF7BBFB303131
:101D1000029007F8011D0C99481E0C900029F2DC76
:101D200002980028EFD1791E0D980870307800F0E5
:101D3000200040F0450007F8020D11A8C01BC01D8F
:101D400002901398007800B1012000EB090101987E
:101D500001EBE071029801440398401A401E039081
:101D6000E00306D453462146179A039800F05CF826
:101D700005441398007818B15246179990476D1C86
:101D8000E00323D553462146179A039800F04CF8F8
:101D900005441BE0BBF1000F07DB0098584504DD4C
:101DA0001098179910F80B0001E01799302052464F
:101DB000904701980BF1010B401E05F101050190C0
:101DC00004D12E205246179990476D1CB9F100019D
:101DD000A9F10109DEDC05E017F8010B524617995D
:101DE00090476D1C0299481E02900029F4DC53466E
:101DF0002146179A03989EE62D0000002B00000054
:101E0000200000002DE9F041044600251E4617463B
:101E1000880404D405E039462020B0476D1C641EB8
:101E2000F9D52846BDE8F0812DE9F04104460025AA
:101E30001E469046C80301D5302700E020278804BD
:101E400004D505E041463846B0476D1C641EF9D5FF
:101E50002846BDE8F08110B50346002404E04FF4A5
:101E60007A7000F004F8641C9C42F8DB10BD00217D
:101E700040E000BF00BF00BF00BF00BF00BF00BF09
:101E800000BF00BF00BF00BF00BF00BF00BF00BF5A
:101E900000BF00BF00BF00BF00BF00BF00BF00BF4A
:101EA00000BF00BF00BF00BF00BF00BF00BF00BF3A
:101EB00000BF00BF00BF00BF00BF00BF00BF00BF2A
:101EC00000BF00BF00BF00BF00BF00BF00BF00BF1A
:101ED00000BF00BF00BF00BF00BF00BF00BF00BF0A
:101EE00000BF00BF00BF00BF00BF00BF00BF00BFFA
:101EF00000BF491C8142BCDB7047000000B587B0C1
:101F000001210846FEF7CEFC01210420FEF7DAFC91
:101F10000320ADF8000004208DF8030069461D4839
:101F2000FEF7CBFB04A8FFF713FA0020ADF8100072
:101F30004FF6FF70ADF814000020ADF81600ADF8B4
:101F4000120004A94FF08040FFF7B0F90A231A46A7
:101F500003215807FEF792FF01A8FFF707F80A20B0
:101F6000ADF80C0001A94007FEF7AAFF0121880780
:101F7000FEF766FF012211469007FFF700F80021E7
:101F80004FF08040FFF764F901218807FEF75BFFFF
:101F900007B000BD0008014000B587B00121042052
:101FA000FEF780FC01210820FEF78CFCC020ADF874
:101FB000000004208DF8030069461C48FEF77DFBF5
:101FC00004A8FFF7C5F90020ADF810004FF6FF7028
:101FD000ADF814000020ADF81600ADF8120004A909
:101FE0001348FFF763F90A231A4603211048FEF746
:101FF00045FF01A8FEF7BAFF0A20ADF80C0001A9C1
:102000000B48FEF75DFF01210948FEF719FF012289
:1020100011460748FEF7B3FF00210548FFF718F9FE
:1020200001210348FEF70FFF07B000BD000C01407F
:1020300000080040C2B2054B1A8000BF034A121FBD
:10204000128802F04002002AF8D07047044800408D
:1020500086B000BF00BF4420394908704120487055
:102060000B2088705420C871412008720D204872DE
:102070000A208872084633490860FEF76DFD4FF468
:10208000A060FEF703FC01A8FEF72CFCFEF7A8FBFE
:1020900001214FF4C85000F09FF8FFF72FFFFFF722
:1020A0007BFF0021084600F057F84FF49661084680
:1020B00000F052F84FF4FA70FFF7CDFE0021084609
:1020C00000F04AF84FF4E13000F066F90198FEF7AD
:1020D000B3F907461C4A1D4BFEF7CDF80546FEF73F
:1020E000B8F90446B4F1807F01D36FF07F442146F4
:1020F000481EB0F1807F01D301201BE0481E4FF045
:10210000E022506150170F22002804DB13071D0E38
:102110000F4B1D5406E013071E0E0E4B00F00F056B
:102120002D1F5E5500BF00204FF0E0229061072078
:102130001061002008B100BFFEE700BFFEE700000D
:102140003B000020080000207B14AE47E17A943F5A
:1021500000E400E018ED00E070B504460D46002CE8
:102160000BDA64424FF480511948FEF731FB4FF40B
:1021700000511748FEF72EFB09E04FF48051144838
:10218000FEF728FB4FF400511148FEF721FB002D0C
:102190000BDA6D424FF400410D48FEF719FB4FF486
:1021A00080410B48FEF716FB09E04FF40041084858
:1021B000FEF710FB4FF480410548FEF709FBA1B282
:1021C0000448FFF742F8A9B20248FFF73CF870BD97
:1021D000000C0140002C014030B589B005460C468A
:1021E0000121C802FEF76EFB01210420FEF76AFB05
:1021F0004FF41060ADF8200018208DF82300032064
:102200008DF8220008A92648FEF757FA681E80B20A
:10221000ADF81800601E80B2ADF814000020ADF8D3
:102220001A00ADF8160005A91E48FFF73FF8602018
:10223000ADF804000120ADF806000020ADF80A005A
:10224000ADF80C0001A91748FEF7A2FE08211548B9
:10225000FEF7EAFE01A91348FEF7F0FE0821114837
:10226000FEF73EFF01A90F48FEF748FF08210D4881
:10227000FEF794FF01A90B48FEF79AFF08210948D1
:10228000FEF7D4FF01210748FEF7CEFD01210548E6
:10229000FEF7D9FD01210348FEF7E1FD09B030BD8D
:1022A00000080140002C01404FF08041898C08B2A9
:1022B00000214FF080429184704700000349098853
:1022C00008B20021014A1180704700002408004034
:1022D00010B52A480078442803D12848407841287E
:1022E00010D0002406E02548015D25A0FFF74EF937
:1022F000601CC4B2244800788442F4DB23A0FFF7BA
:1023000045F910BD1D4880781F490978884210D0D2
:10231000002406E01948015D19A0FFF737F9601C99
:10232000C4B2194800788442F4DB18A0FFF72EF9F4
:10233000E7E7154800780B2810D0002406E00F4886
:10234000015D0FA0FFF722F9601CC4B20E480078AF
:102350008442F4DB0DA0FFF719F9D2E70C490748D6
:1023600002680A6042684A6002890A81807A88723B
:1023700001200849086000BFC3E7000046000020B4
:102380003078257820000000240000200D0A00008D
:10239000300000200000002010B586B00446012166
:1023A0000920FEF78FFA01218804FEF77BFA4FF42B
:1023B0008060ADF8140003208DF8160018208DF809
:1023C000170005A91C48FEF778F927208DF80000B2
:1023D00000208DF801008DF8020001208DF8030027
:1023E0006846FEF71BFA4FF40060ADF814000420B5
:1023F0008DF8170005A91048FEF75FF90194002039
:10240000ADF80800ADF80A00ADF80C00ADF810000A
:102410000C20ADF80E0001A90848FFF743F801228F
:1024200040F225510548FFF717F801210348FEF750
:10243000DDFF06B010BD0000000C01400048004068
:10244000602400080000002030000000AC150008E7
:10245000902400083000002080100000BC15000807
:10246000000000000000000000000000000000006C
:10247000000000000102030401020304060708092A
:102480000204060800000000000000000000000038
:04000005080000ED02
:00000001FF
